{
  "_format": "hh-sol-artifact-1",
  "contractName": "BulkTransfer",
  "sourceName": "contracts/BulkTransfer/BulkTransfer.sol",
  "abi": [
    {
      "inputs": [
        {
          "internalType": "address",
          "name": "target",
          "type": "address"
        }
      ],
      "name": "AddressEmptyCode",
      "type": "error"
    },
    {
      "inputs": [],
      "name": "BulkTransferAlreadyStarted",
      "type": "error"
    },
    {
      "inputs": [],
      "name": "BulkTransferStartTimePast",
      "type": "error"
    },
    {
      "inputs": [
        {
          "internalType": "address",
          "name": "implementation",
          "type": "address"
        }
      ],
      "name": "ERC1967InvalidImplementation",
      "type": "error"
    },
    {
      "inputs": [],
      "name": "ERC1967NonPayable",
      "type": "error"
    },
    {
      "inputs": [],
      "name": "EmptyMerkleRoot",
      "type": "error"
    },
    {
      "inputs": [],
      "name": "FailedCall",
      "type": "error"
    },
    {
      "inputs": [],
      "name": "InvalidInitialization",
      "type": "error"
    },
    {
      "inputs": [],
      "name": "MissMatchBulkTransferType",
      "type": "error"
    },
    {
      "inputs": [],
      "name": "NotInitializing",
      "type": "error"
    },
    {
      "inputs": [
        {
          "internalType": "address",
          "name": "owner",
          "type": "address"
        }
      ],
      "name": "OwnableInvalidOwner",
      "type": "error"
    },
    {
      "inputs": [
        {
          "internalType": "address",
          "name": "account",
          "type": "address"
        }
      ],
      "name": "OwnableUnauthorizedAccount",
      "type": "error"
    },
    {
      "inputs": [],
      "name": "UUPSUnauthorizedCallContext",
      "type": "error"
    },
    {
      "inputs": [
        {
          "internalType": "bytes32",
          "name": "slot",
          "type": "bytes32"
        }
      ],
      "name": "UUPSUnsupportedProxiableUUID",
      "type": "error"
    },
    {
      "anonymous": false,
      "inputs": [
        {
          "indexed": false,
          "internalType": "bytes32",
          "name": "name",
          "type": "bytes32"
        },
        {
          "indexed": true,
          "internalType": "address",
          "name": "sender",
          "type": "address"
        },
        {
          "indexed": false,
          "internalType": "uint256",
          "name": "bulkCount",
          "type": "uint256"
        },
        {
          "indexed": false,
          "internalType": "uint8",
          "name": "transferType",
          "type": "uint8"
        }
      ],
      "name": "CreatedBulkTransfer",
      "type": "event"
    },
    {
      "anonymous": false,
      "inputs": [
        {
          "indexed": false,
          "internalType": "uint64",
          "name": "version",
          "type": "uint64"
        }
      ],
      "name": "Initialized",
      "type": "event"
    },
    {
      "anonymous": false,
      "inputs": [
        {
          "indexed": true,
          "internalType": "address",
          "name": "previousOwner",
          "type": "address"
        },
        {
          "indexed": true,
          "internalType": "address",
          "name": "newOwner",
          "type": "address"
        }
      ],
      "name": "OwnershipTransferred",
      "type": "event"
    },
    {
      "anonymous": false,
      "inputs": [
        {
          "indexed": false,
          "internalType": "bytes32",
          "name": "name",
          "type": "bytes32"
        },
        {
          "indexed": true,
          "internalType": "address",
          "name": "sender",
          "type": "address"
        },
        {
          "indexed": false,
          "internalType": "bytes32",
          "name": "bulkBytes",
          "type": "bytes32"
        }
      ],
      "name": "UpdatedBulkTransfer",
      "type": "event"
    },
    {
      "anonymous": false,
      "inputs": [
        {
          "indexed": true,
          "internalType": "address",
          "name": "implementation",
          "type": "address"
        }
      ],
      "name": "Upgraded",
      "type": "event"
    },
    {
      "inputs": [],
      "name": "UPGRADE_INTERFACE_VERSION",
      "outputs": [
        {
          "internalType": "string",
          "name": "",
          "type": "string"
        }
      ],
      "stateMutability": "view",
      "type": "function"
    },
    {
      "inputs": [
        {
          "internalType": "address",
          "name": "",
          "type": "address"
        }
      ],
      "name": "bulkCount",
      "outputs": [
        {
          "internalType": "uint256",
          "name": "",
          "type": "uint256"
        }
      ],
      "stateMutability": "view",
      "type": "function"
    },
    {
      "inputs": [
        {
          "internalType": "bytes32",
          "name": "",
          "type": "bytes32"
        }
      ],
      "name": "bulkTransfers",
      "outputs": [
        {
          "internalType": "bytes32",
          "name": "name",
          "type": "bytes32"
        },
        {
          "internalType": "bytes32",
          "name": "merkleRoots",
          "type": "bytes32"
        },
        {
          "internalType": "uint8",
          "name": "transferType",
          "type": "uint8"
        },
        {
          "internalType": "uint256",
          "name": "startTime",
          "type": "uint256"
        }
      ],
      "stateMutability": "view",
      "type": "function"
    },
    {
      "inputs": [
        {
          "internalType": "address",
          "name": "_sender",
          "type": "address"
        },
        {
          "internalType": "uint256",
          "name": "_bulkCount",
          "type": "uint256"
        }
      ],
      "name": "calculateBulkBytes",
      "outputs": [
        {
          "internalType": "bytes32",
          "name": "",
          "type": "bytes32"
        }
      ],
      "stateMutability": "pure",
      "type": "function"
    },
    {
      "inputs": [
        {
          "internalType": "bytes32",
          "name": "_name",
          "type": "bytes32"
        },
        {
          "internalType": "bytes32",
          "name": "_merkleRoot",
          "type": "bytes32"
        },
        {
          "internalType": "uint256",
          "name": "_startTime",
          "type": "uint256"
        },
        {
          "internalType": "uint8",
          "name": "_transferType",
          "type": "uint8"
        }
      ],
      "name": "createBulkTransfer",
      "outputs": [],
      "stateMutability": "nonpayable",
      "type": "function"
    },
    {
      "inputs": [
        {
          "internalType": "address",
          "name": "bulkSender",
          "type": "address"
        },
        {
          "internalType": "uint256",
          "name": "bulkTransferIndex",
          "type": "uint256"
        }
      ],
      "name": "getBulkTransferName",
      "outputs": [
        {
          "internalType": "bytes32",
          "name": "streamName",
          "type": "bytes32"
        }
      ],
      "stateMutability": "view",
      "type": "function"
    },
    {
      "inputs": [
        {
          "internalType": "address",
          "name": "bulkSender",
          "type": "address"
        },
        {
          "internalType": "uint256",
          "name": "bulkTransferIndex",
          "type": "uint256"
        }
      ],
      "name": "getBulkTransferStartTime",
      "outputs": [
        {
          "internalType": "uint256",
          "name": "startTime",
          "type": "uint256"
        }
      ],
      "stateMutability": "view",
      "type": "function"
    },
    {
      "inputs": [],
      "name": "getTrustedForwarder",
      "outputs": [
        {
          "internalType": "address",
          "name": "forwarder",
          "type": "address"
        }
      ],
      "stateMutability": "view",
      "type": "function"
    },
    {
      "inputs": [],
      "name": "initialize",
      "outputs": [],
      "stateMutability": "nonpayable",
      "type": "function"
    },
    {
      "inputs": [
        {
          "internalType": "address",
          "name": "forwarder",
          "type": "address"
        }
      ],
      "name": "isTrustedForwarder",
      "outputs": [
        {
          "internalType": "bool",
          "name": "",
          "type": "bool"
        }
      ],
      "stateMutability": "view",
      "type": "function"
    },
    {
      "inputs": [],
      "name": "owner",
      "outputs": [
        {
          "internalType": "address",
          "name": "",
          "type": "address"
        }
      ],
      "stateMutability": "view",
      "type": "function"
    },
    {
      "inputs": [],
      "name": "proxiableUUID",
      "outputs": [
        {
          "internalType": "bytes32",
          "name": "",
          "type": "bytes32"
        }
      ],
      "stateMutability": "view",
      "type": "function"
    },
    {
      "inputs": [],
      "name": "renounceOwnership",
      "outputs": [],
      "stateMutability": "nonpayable",
      "type": "function"
    },
    {
      "inputs": [
        {
          "internalType": "address",
          "name": "newOwner",
          "type": "address"
        }
      ],
      "name": "transferOwnership",
      "outputs": [],
      "stateMutability": "nonpayable",
      "type": "function"
    },
    {
      "inputs": [
        {
          "internalType": "bytes32",
          "name": "_name",
          "type": "bytes32"
        },
        {
          "internalType": "bytes32",
          "name": "bulkBytes",
          "type": "bytes32"
        },
        {
          "internalType": "bytes32",
          "name": "merkleRoot",
          "type": "bytes32"
        },
        {
          "internalType": "uint256",
          "name": "startTime",
          "type": "uint256"
        }
      ],
      "name": "updateBulkTransfer",
      "outputs": [],
      "stateMutability": "nonpayable",
      "type": "function"
    },
    {
      "inputs": [
        {
          "internalType": "address",
          "name": "newImplementation",
          "type": "address"
        },
        {
          "internalType": "bytes",
          "name": "data",
          "type": "bytes"
        }
      ],
      "name": "upgradeToAndCall",
      "outputs": [],
      "stateMutability": "payable",
      "type": "function"
    },
    {
      "inputs": [
        {
          "internalType": "uint256",
          "name": "bulkTransferIndex",
          "type": "uint256"
        },
        {
          "internalType": "uint256",
          "name": "transferingAmount",
          "type": "uint256"
        },
        {
          "internalType": "address",
          "name": "transferingToken",
          "type": "address"
        },
        {
          "internalType": "address",
          "name": "transferSender",
          "type": "address"
        },
        {
          "internalType": "address",
          "name": "transferReceiver",
          "type": "address"
        },
        {
          "internalType": "bytes32[]",
          "name": "proofs",
          "type": "bytes32[]"
        }
      ],
      "name": "verifyBulkInstantTransfer",
      "outputs": [
        {
          "internalType": "bool",
          "name": "isValid",
          "type": "bool"
        }
      ],
      "stateMutability": "view",
      "type": "function"
    },
    {
      "inputs": [
        {
          "internalType": "uint256",
          "name": "bulkTransferIndex",
          "type": "uint256"
        },
        {
          "internalType": "uint256",
          "name": "transferingAmount",
          "type": "uint256"
        },
        {
          "internalType": "address",
          "name": "transferingToken",
          "type": "address"
        },
        {
          "internalType": "address",
          "name": "transferSender",
          "type": "address"
        },
        {
          "internalType": "address",
          "name": "transferReceiver",
          "type": "address"
        },
        {
          "internalType": "uint256",
          "name": "transferStartTime",
          "type": "uint256"
        },
        {
          "internalType": "uint256",
          "name": "transferEndTime",
          "type": "uint256"
        },
        {
          "internalType": "uint8",
          "name": "streamParam",
          "type": "uint8"
        },
        {
          "internalType": "bytes32[]",
          "name": "proofs",
          "type": "bytes32[]"
        }
      ],
      "name": "verifyBulkStreamTransfer",
      "outputs": [
        {
          "internalType": "bool",
          "name": "isValid",
          "type": "bool"
        }
      ],
      "stateMutability": "view",
      "type": "function"
    }
  ],
  "bytecode": "0x60a080604052346029573060805261109f908161002f823960805181818161089d01526109700152f35b600080fdfe6080604052600436101561001257600080fd5b60003560e01c80630b6dd92b14610c775780631de5b92f14610c435780633a5e206214610b345780634f1ef286146108f457806352d1902d1461088a578063572b6c0514610855578063715018a6146107eb57806380539bbf146107b15780638129fc1c146106695780638da5cb5b14610633578063a8a27c6f14610604578063ad3cb1cc14610588578063c4f20702146103c1578063ce1b815f14610398578063e00123771461028f578063ea0825cc14610163578063f2fde38b146101385763f6d47542146100e257600080fd5b3461013357602036600319011261013357600435600052600260205260806040600020805490600181015490600360ff60028301541691015491604051938452602084015260408301526060820152f35b600080fd5b3461013357602036600319011261013357610161610154610cae565b61015c610ed4565b610e2a565b005b346101335760c03660031901126101335760043561017f610cc4565b90610188610cda565b90610191610cf0565b9160a4356001600160401b038111610133576101b1903690600401610d73565b906101bc8382610dda565b928360005260026020526001604060002001541561027e5783600052600260205260ff600260406000200154161561026d57604080516020818101938452602435928201929092526001600160a01b03978816606082015292871660808401529590941660a0808301919091528152610263936102469161023e60c082610d37565b519020610e0f565b848151910120916000526002845260016040600020015490610f29565b6040519015158152f35b634339cb1d60e11b60005260046000fd5b6385ac2b9960e01b60005260046000fd5b3461013357610120366003190112610133576004356102ac610cc4565b906102b5610cda565b916102be610cf0565b9160e4359360ff851680950361013357610104356001600160401b038111610133576102ee903690600401610d73565b916102f98183610dda565b938460005260026020526001604060002001541561027e57846000526002602052600160ff600260406000200154161461026d576020966102639661024694604051938a850195865260a435604086015260c4356060860152602435608086015260018060a01b031660a085015260018060a01b031660c084015260018060a01b031660e0830152610100820152610100815261023e61012082610d37565b34610133576000366003190112610133576000546040516001600160a01b039091168152602090f35b34610133576080366003190112610133576004356044356064359060ff82168092036101335742811115610577576103f7610ea0565b60018060a01b038116600052600160205260406000205490600182018092116105615760405160609190911b6001600160601b0319166020820190815260348201929092526003919061045781605481015b03601f198101835282610d37565b519020916040519261046884610d06565b858452602084016024358152604085019186835260608601938452600052600260205260406000209451855551600185015560ff6002850191511660ff198254161790555191015560018060a01b036104bf610ea0565b16600052600160205260406000205460018101809111610561577f6ae384d2d62a330f6ea22f5e030d3505ad3871744d197e3dc277ea17e820a73b916060916001600160a01b0361050e610ea0565b166000526001602052604060002055610525610ea0565b906001600160a01b03610536610ea0565b1660005260016020526040600020546040519586526020860152604085015260018060a01b031692a2005b634e487b7160e01b600052601160045260246000fd5b639cbecc4160e01b60005260046000fd5b346101335760003660031901126101335760408051906105a88183610d37565b60058252640352e302e360dc1b6020830152805180926020825280519081602084015260005b8281106105ed5750506000828201840152601f01601f19168101030190f35b6020828201810151878301870152869450016105ce565b3461013357604036600319011261013357602061062b610622610cae565b60243590610dda565b604051908152f35b346101335760003660031901126101335760008051602061100a833981519152546040516001600160a01b039091168152602090f35b346101335760003660031901126101335760008051602061104a8339815191525460ff8160401c1615906001600160401b038116801590816107a9575b600114908161079f575b159081610796575b506107855767ffffffffffffffff19811660011760008051602061104a8339815191525581610758575b506106fe6106ee610ea0565b6106f6610f7a565b61015c610f7a565b61070457005b60ff60401b1960008051602061104a833981519152541660008051602061104a833981519152557fc7f505b2f371ae2175ee4913f4499e1f2633a7b5936321eed1cdaeb6115181d2602060405160018152a1005b68ffffffffffffffffff1916680100000000000000011760008051602061104a83398151915255816106e2565b63f92ee8a960e01b60005260046000fd5b905015836106b8565b303b1591506106b0565b8391506106a6565b34610133576020366003190112610133576001600160a01b036107d2610cae565b1660005260016020526020604060002054604051908152f35b3461013357600036600319011261013357610804610ed4565b60008051602061100a83398151915280546001600160a01b031981169091556000906001600160a01b03167f8be0079c531659141344cd1fd0a4f28419497f9722a3daafe3b4186f6b6457e08280a3005b34610133576020366003190112610133576020610870610cae565b6000546040516001600160a01b0392831691909216148152f35b34610133576000366003190112610133577f00000000000000000000000000000000000000000000000000000000000000006001600160a01b031630036108e357602060405160008051602061102a8339815191528152f35b63703e46dd60e11b60005260046000fd5b604036600319011261013357610908610cae565b602435906001600160401b03821161013357366023830112156101335781600401359061093482610d58565b916109426040519384610d37565b8083526020830193366024838301011161013357816000926024602093018737840101526001600160a01b037f000000000000000000000000000000000000000000000000000000000000000016308114908115610b11575b506108e3576109a8610ed4565b6040516352d1902d60e01b81526001600160a01b0382169390602081600481885afa60009181610add575b506109ed5784634c9c8ce360e01b60005260045260246000fd5b8060008051602061102a833981519152869203610ac95750823b15610ab55760008051602061102a83398151915280546001600160a01b031916821790557fbc7cd75a20ee27fd9adebab32041f755214dbc6bffa90cc0225b39da2e5c2d3b600080a2825115610a9a5760008091610161945190845af43d15610a92573d91610a7583610d58565b92610a836040519485610d37565b83523d6000602085013e610fa8565b606091610fa8565b50505034610aa457005b63b398979f60e01b60005260046000fd5b634c9c8ce360e01b60005260045260246000fd5b632a87526960e21b60005260045260246000fd5b9091506020813d602011610b09575b81610af960209383610d37565b81010312610133575190866109d3565b3d9150610aec565b60008051602061102a833981519152546001600160a01b0316141590508461099b565b346101335760803660031901126101335760243560043560643542811115610577578260005260026020526001604060002001541561027e57826000526002602052426003604060002001541115610c32577fe75b42a906f750a9c47e2c9bd0c4a45ffebe5203e6b36ed394b819f7bbf3b24a91604091846000526002602052600360ff60028560002001541691845192610bce84610d06565b84845260208401604435815286850191825260608501928352886000526002602052866000209451855551600185015560ff6002850191511660ff198254161790555191015560018060a01b03610c23610ea0565b169382519182526020820152a2005b63028da07f60e51b60005260046000fd5b3461013357604036600319011261013357610c5f610622610cae565b60005260026020526020604060002054604051908152f35b3461013357604036600319011261013357610c93610622610cae565b60005260026020526020600360406000200154604051908152f35b600435906001600160a01b038216820361013357565b604435906001600160a01b038216820361013357565b606435906001600160a01b038216820361013357565b608435906001600160a01b038216820361013357565b608081019081106001600160401b03821117610d2157604052565b634e487b7160e01b600052604160045260246000fd5b90601f801991011681019081106001600160401b03821117610d2157604052565b6001600160401b038111610d2157601f01601f191660200190565b9080601f83011215610133578135916001600160401b038311610d21578260051b9060405193610da66020840186610d37565b845260208085019282010192831161013357602001905b828210610dca5750505090565b8135815260209182019101610dbd565b60405160609190911b6001600160601b031916602082019081526034820192909252610e098160548101610449565b51902090565b9060405191602083015260208252610e28604083610d37565b565b6001600160a01b03168015610e8a5760008051602061100a83398151915280546001600160a01b0319811683179091556001600160a01b03167f8be0079c531659141344cd1fd0a4f28419497f9722a3daafe3b4186f6b6457e0600080a3565b631e4fbdf760e01b600052600060045260246000fd5b601436101580610ec0575b15610ebc5736601319013560601c90565b3390565b506000546001600160a01b03163314610eab565b60008051602061100a833981519152546001600160a01b0390811690610ef8610ea0565b1603610f0057565b610f08610ea0565b63118cdaa760e01b60009081526001600160a01b0391909116600452602490fd5b929091906000915b8451831015610f7257604060019160009060208660051b8901015190818110600014610f66578252602052205b920191610f31565b90825260205220610f5e565b915092501490565b60ff60008051602061104a8339815191525460401c1615610f9757565b631afcd79f60e31b60005260046000fd5b90610fce5750805115610fbd57805190602001fd5b63d6bda27560e01b60005260046000fd5b81511580611000575b610fdf575090565b639996b31560e01b60009081526001600160a01b0391909116600452602490fd5b50803b15610fd756fe9016d09d72d40fdae2fd8ceac6b6234c7706214fd39c1cd1e609a0528c199300360894a13ba1a3210667c828492db98dca3e2076cc3735a920a3ca505d382bbcf0c57e16840df040f15088dc2f81fe391c3923bec73e23a9662efc9c229c6a00a2646970667358221220d4607c87049e8f0bd61d5c081d931b064b563d51010420d2c9a3ee0d555571dc64736f6c634300081c0033",
  "linkReferences": {},
  "deployedLinkReferences": {}
}