{
  "_format": "hh-sol-artifact-1",
  "contractName": "Staking",
  "sourceName": "contracts/Staking/Staking.sol",
  "abi": [
    {
      "inputs": [],
      "name": "AccessControlBadConfirmation",
      "type": "error"
    },
    {
      "inputs": [
        {
          "internalType": "address",
          "name": "account",
          "type": "address"
        },
        {
          "internalType": "bytes32",
          "name": "neededRole",
          "type": "bytes32"
        }
      ],
      "name": "AccessControlUnauthorizedAccount",
      "type": "error"
    },
    {
      "inputs": [
        {
          "internalType": "address",
          "name": "target",
          "type": "address"
        }
      ],
      "name": "AddressEmptyCode",
      "type": "error"
    },
    {
      "inputs": [
        {
          "internalType": "address",
          "name": "implementation",
          "type": "address"
        }
      ],
      "name": "ERC1967InvalidImplementation",
      "type": "error"
    },
    {
      "inputs": [],
      "name": "ERC1967NonPayable",
      "type": "error"
    },
    {
      "inputs": [],
      "name": "FailedCall",
      "type": "error"
    },
    {
      "inputs": [
        {
          "internalType": "address",
          "name": "token",
          "type": "address"
        },
        {
          "internalType": "uint256",
          "name": "requestAmount",
          "type": "uint256"
        },
        {
          "internalType": "uint256",
          "name": "balance",
          "type": "uint256"
        }
      ],
      "name": "InSufficientAmount",
      "type": "error"
    },
    {
      "inputs": [
        {
          "internalType": "address",
          "name": "token",
          "type": "address"
        },
        {
          "internalType": "uint256",
          "name": "requestAmount",
          "type": "uint256"
        },
        {
          "internalType": "uint256",
          "name": "vaultAmount",
          "type": "uint256"
        }
      ],
      "name": "InSufficientStakedAmount",
      "type": "error"
    },
    {
      "inputs": [
        {
          "internalType": "address",
          "name": "sender",
          "type": "address"
        }
      ],
      "name": "InvalidCaller",
      "type": "error"
    },
    {
      "inputs": [],
      "name": "InvalidDataSent",
      "type": "error"
    },
    {
      "inputs": [],
      "name": "InvalidInitialization",
      "type": "error"
    },
    {
      "inputs": [
        {
          "internalType": "address",
          "name": "token",
          "type": "address"
        },
        {
          "internalType": "address",
          "name": "sender",
          "type": "address"
        }
      ],
      "name": "InvalidTokenAllowance",
      "type": "error"
    },
    {
      "inputs": [],
      "name": "NotInitializing",
      "type": "error"
    },
    {
      "inputs": [
        {
          "internalType": "address",
          "name": "owner",
          "type": "address"
        }
      ],
      "name": "OwnableInvalidOwner",
      "type": "error"
    },
    {
      "inputs": [
        {
          "internalType": "address",
          "name": "account",
          "type": "address"
        }
      ],
      "name": "OwnableUnauthorizedAccount",
      "type": "error"
    },
    {
      "inputs": [],
      "name": "UUPSUnauthorizedCallContext",
      "type": "error"
    },
    {
      "inputs": [
        {
          "internalType": "bytes32",
          "name": "slot",
          "type": "bytes32"
        }
      ],
      "name": "UUPSUnsupportedProxiableUUID",
      "type": "error"
    },
    {
      "inputs": [
        {
          "internalType": "uint256",
          "name": "valueOne",
          "type": "uint256"
        },
        {
          "internalType": "uint256",
          "name": "valueTwo",
          "type": "uint256"
        }
      ],
      "name": "ValueDoNotMatch",
      "type": "error"
    },
    {
      "inputs": [
        {
          "internalType": "uint256",
          "name": "maxAmount",
          "type": "uint256"
        },
        {
          "internalType": "uint256",
          "name": "sentAmount",
          "type": "uint256"
        }
      ],
      "name": "ValueTooLarge",
      "type": "error"
    },
    {
      "anonymous": false,
      "inputs": [
        {
          "indexed": false,
          "internalType": "uint64",
          "name": "version",
          "type": "uint64"
        }
      ],
      "name": "Initialized",
      "type": "event"
    },
    {
      "anonymous": false,
      "inputs": [
        {
          "indexed": true,
          "internalType": "address",
          "name": "previousOwner",
          "type": "address"
        },
        {
          "indexed": true,
          "internalType": "address",
          "name": "newOwner",
          "type": "address"
        }
      ],
      "name": "OwnershipTransferred",
      "type": "event"
    },
    {
      "anonymous": false,
      "inputs": [
        {
          "indexed": true,
          "internalType": "bytes32",
          "name": "role",
          "type": "bytes32"
        },
        {
          "indexed": true,
          "internalType": "bytes32",
          "name": "previousAdminRole",
          "type": "bytes32"
        },
        {
          "indexed": true,
          "internalType": "bytes32",
          "name": "newAdminRole",
          "type": "bytes32"
        }
      ],
      "name": "RoleAdminChanged",
      "type": "event"
    },
    {
      "anonymous": false,
      "inputs": [
        {
          "indexed": true,
          "internalType": "bytes32",
          "name": "role",
          "type": "bytes32"
        },
        {
          "indexed": true,
          "internalType": "address",
          "name": "account",
          "type": "address"
        },
        {
          "indexed": true,
          "internalType": "address",
          "name": "sender",
          "type": "address"
        }
      ],
      "name": "RoleGranted",
      "type": "event"
    },
    {
      "anonymous": false,
      "inputs": [
        {
          "indexed": true,
          "internalType": "bytes32",
          "name": "role",
          "type": "bytes32"
        },
        {
          "indexed": true,
          "internalType": "address",
          "name": "account",
          "type": "address"
        },
        {
          "indexed": true,
          "internalType": "address",
          "name": "sender",
          "type": "address"
        }
      ],
      "name": "RoleRevoked",
      "type": "event"
    },
    {
      "anonymous": false,
      "inputs": [
        {
          "indexed": false,
          "internalType": "uint256[]",
          "name": "streamFee",
          "type": "uint256[]"
        },
        {
          "indexed": false,
          "internalType": "uint256[]",
          "name": "numberOfTokens",
          "type": "uint256[]"
        }
      ],
      "name": "SetStreamFeeTiers",
      "type": "event"
    },
    {
      "anonymous": false,
      "inputs": [
        {
          "indexed": true,
          "internalType": "address",
          "name": "staker",
          "type": "address"
        },
        {
          "indexed": false,
          "internalType": "uint256",
          "name": "amount",
          "type": "uint256"
        }
      ],
      "name": "StakedToken",
      "type": "event"
    },
    {
      "anonymous": false,
      "inputs": [
        {
          "indexed": false,
          "internalType": "uint256",
          "name": "newStreamFee",
          "type": "uint256"
        }
      ],
      "name": "StreamFeeUpdated",
      "type": "event"
    },
    {
      "anonymous": false,
      "inputs": [
        {
          "indexed": false,
          "internalType": "address",
          "name": "tokenAddress",
          "type": "address"
        },
        {
          "indexed": false,
          "internalType": "address",
          "name": "withdrawer",
          "type": "address"
        },
        {
          "indexed": false,
          "internalType": "uint256",
          "name": "amount",
          "type": "uint256"
        }
      ],
      "name": "TokenWithdrawn",
      "type": "event"
    },
    {
      "anonymous": false,
      "inputs": [
        {
          "indexed": true,
          "internalType": "address",
          "name": "staker",
          "type": "address"
        },
        {
          "indexed": false,
          "internalType": "uint256",
          "name": "amount",
          "type": "uint256"
        }
      ],
      "name": "UnstakedToken",
      "type": "event"
    },
    {
      "anonymous": false,
      "inputs": [
        {
          "indexed": true,
          "internalType": "address",
          "name": "implementation",
          "type": "address"
        }
      ],
      "name": "Upgraded",
      "type": "event"
    },
    {
      "anonymous": false,
      "inputs": [
        {
          "indexed": false,
          "internalType": "address",
          "name": "tokenAddress",
          "type": "address"
        },
        {
          "indexed": false,
          "internalType": "address",
          "name": "walletAddress",
          "type": "address"
        },
        {
          "indexed": false,
          "internalType": "uint256",
          "name": "streamFee",
          "type": "uint256"
        }
      ],
      "name": "WhiteListedAddress",
      "type": "event"
    },
    {
      "stateMutability": "payable",
      "type": "fallback"
    },
    {
      "inputs": [],
      "name": "DEFAULT_ADMIN_ROLE",
      "outputs": [
        {
          "internalType": "bytes32",
          "name": "",
          "type": "bytes32"
        }
      ],
      "stateMutability": "view",
      "type": "function"
    },
    {
      "inputs": [],
      "name": "UPGRADE_INTERFACE_VERSION",
      "outputs": [
        {
          "internalType": "string",
          "name": "",
          "type": "string"
        }
      ],
      "stateMutability": "view",
      "type": "function"
    },
    {
      "inputs": [],
      "name": "getAllStakingTiers",
      "outputs": [
        {
          "internalType": "uint256[]",
          "name": "_stakingTiers",
          "type": "uint256[]"
        }
      ],
      "stateMutability": "view",
      "type": "function"
    },
    {
      "inputs": [],
      "name": "getAllStreamFee",
      "outputs": [
        {
          "internalType": "uint256[]",
          "name": "_streamFee",
          "type": "uint256[]"
        }
      ],
      "stateMutability": "view",
      "type": "function"
    },
    {
      "inputs": [
        {
          "internalType": "uint256",
          "name": "stakingTierIndex",
          "type": "uint256"
        }
      ],
      "name": "getCorrespondingStreamFee",
      "outputs": [
        {
          "internalType": "uint256",
          "name": "_streamFee",
          "type": "uint256"
        }
      ],
      "stateMutability": "view",
      "type": "function"
    },
    {
      "inputs": [
        {
          "internalType": "bytes32",
          "name": "role",
          "type": "bytes32"
        }
      ],
      "name": "getRoleAdmin",
      "outputs": [
        {
          "internalType": "bytes32",
          "name": "",
          "type": "bytes32"
        }
      ],
      "stateMutability": "view",
      "type": "function"
    },
    {
      "inputs": [
        {
          "internalType": "address",
          "name": "sender",
          "type": "address"
        },
        {
          "internalType": "address",
          "name": "_tokenAddress",
          "type": "address"
        }
      ],
      "name": "getStreamFee",
      "outputs": [
        {
          "internalType": "uint256",
          "name": "_streamFee",
          "type": "uint256"
        }
      ],
      "stateMutability": "view",
      "type": "function"
    },
    {
      "inputs": [
        {
          "internalType": "bytes32",
          "name": "role",
          "type": "bytes32"
        },
        {
          "internalType": "address",
          "name": "account",
          "type": "address"
        }
      ],
      "name": "grantRole",
      "outputs": [],
      "stateMutability": "nonpayable",
      "type": "function"
    },
    {
      "inputs": [
        {
          "internalType": "bytes32",
          "name": "role",
          "type": "bytes32"
        },
        {
          "internalType": "address",
          "name": "account",
          "type": "address"
        }
      ],
      "name": "hasRole",
      "outputs": [
        {
          "internalType": "bool",
          "name": "",
          "type": "bool"
        }
      ],
      "stateMutability": "view",
      "type": "function"
    },
    {
      "inputs": [
        {
          "internalType": "address",
          "name": "_tokenAddress",
          "type": "address"
        }
      ],
      "name": "initialize",
      "outputs": [],
      "stateMutability": "nonpayable",
      "type": "function"
    },
    {
      "inputs": [
        {
          "internalType": "address",
          "name": "",
          "type": "address"
        }
      ],
      "name": "noOfTokenStakedByUser",
      "outputs": [
        {
          "internalType": "uint256",
          "name": "",
          "type": "uint256"
        }
      ],
      "stateMutability": "view",
      "type": "function"
    },
    {
      "inputs": [],
      "name": "owner",
      "outputs": [
        {
          "internalType": "address",
          "name": "",
          "type": "address"
        }
      ],
      "stateMutability": "view",
      "type": "function"
    },
    {
      "inputs": [],
      "name": "proxiableUUID",
      "outputs": [
        {
          "internalType": "bytes32",
          "name": "",
          "type": "bytes32"
        }
      ],
      "stateMutability": "view",
      "type": "function"
    },
    {
      "inputs": [],
      "name": "renounceOwnership",
      "outputs": [],
      "stateMutability": "nonpayable",
      "type": "function"
    },
    {
      "inputs": [
        {
          "internalType": "bytes32",
          "name": "role",
          "type": "bytes32"
        },
        {
          "internalType": "address",
          "name": "callerConfirmation",
          "type": "address"
        }
      ],
      "name": "renounceRole",
      "outputs": [],
      "stateMutability": "nonpayable",
      "type": "function"
    },
    {
      "inputs": [
        {
          "internalType": "bytes32",
          "name": "role",
          "type": "bytes32"
        },
        {
          "internalType": "address",
          "name": "account",
          "type": "address"
        }
      ],
      "name": "revokeRole",
      "outputs": [],
      "stateMutability": "nonpayable",
      "type": "function"
    },
    {
      "inputs": [
        {
          "internalType": "uint256[]",
          "name": "_streamFee",
          "type": "uint256[]"
        },
        {
          "internalType": "uint256[]",
          "name": "_numberOfTokens",
          "type": "uint256[]"
        }
      ],
      "name": "setStreamFeeTiers",
      "outputs": [],
      "stateMutability": "nonpayable",
      "type": "function"
    },
    {
      "inputs": [
        {
          "internalType": "uint256",
          "name": "amount",
          "type": "uint256"
        }
      ],
      "name": "stakeTokens",
      "outputs": [],
      "stateMutability": "nonpayable",
      "type": "function"
    },
    {
      "inputs": [
        {
          "internalType": "bytes4",
          "name": "interfaceId",
          "type": "bytes4"
        }
      ],
      "name": "supportsInterface",
      "outputs": [
        {
          "internalType": "bool",
          "name": "",
          "type": "bool"
        }
      ],
      "stateMutability": "view",
      "type": "function"
    },
    {
      "inputs": [],
      "name": "tokenAddress",
      "outputs": [
        {
          "internalType": "address",
          "name": "",
          "type": "address"
        }
      ],
      "stateMutability": "view",
      "type": "function"
    },
    {
      "inputs": [],
      "name": "totalStakedToken",
      "outputs": [
        {
          "internalType": "uint256",
          "name": "",
          "type": "uint256"
        }
      ],
      "stateMutability": "view",
      "type": "function"
    },
    {
      "inputs": [
        {
          "internalType": "address",
          "name": "newOwner",
          "type": "address"
        }
      ],
      "name": "transferOwnership",
      "outputs": [],
      "stateMutability": "nonpayable",
      "type": "function"
    },
    {
      "inputs": [
        {
          "internalType": "uint256",
          "name": "amount",
          "type": "uint256"
        }
      ],
      "name": "unstakeTokens",
      "outputs": [],
      "stateMutability": "nonpayable",
      "type": "function"
    },
    {
      "inputs": [
        {
          "internalType": "address",
          "name": "newImplementation",
          "type": "address"
        },
        {
          "internalType": "bytes",
          "name": "data",
          "type": "bytes"
        }
      ],
      "name": "upgradeToAndCall",
      "outputs": [],
      "stateMutability": "payable",
      "type": "function"
    },
    {
      "inputs": [
        {
          "internalType": "address",
          "name": "_tokenAddress",
          "type": "address"
        },
        {
          "internalType": "address[]",
          "name": "walletAddresses",
          "type": "address[]"
        },
        {
          "internalType": "uint256[]",
          "name": "_streamFee",
          "type": "uint256[]"
        }
      ],
      "name": "whitelistAddress",
      "outputs": [],
      "stateMutability": "nonpayable",
      "type": "function"
    },
    {
      "inputs": [
        {
          "internalType": "address",
          "name": "",
          "type": "address"
        },
        {
          "internalType": "address",
          "name": "",
          "type": "address"
        }
      ],
      "name": "whitelistState",
      "outputs": [
        {
          "internalType": "bool",
          "name": "isWhitelisted",
          "type": "bool"
        },
        {
          "internalType": "uint256",
          "name": "streamFee",
          "type": "uint256"
        }
      ],
      "stateMutability": "view",
      "type": "function"
    },
    {
      "inputs": [
        {
          "internalType": "address",
          "name": "_tokenAddress",
          "type": "address"
        },
        {
          "internalType": "uint256",
          "name": "amount",
          "type": "uint256"
        }
      ],
      "name": "withdrawTokens",
      "outputs": [],
      "stateMutability": "nonpayable",
      "type": "function"
    },
    {
      "stateMutability": "payable",
      "type": "receive"
    }
  ],
  "bytecode": "0x60a0806040523460295730608052611c39908161002f8239608051818181610cb00152610d830152f35b600080fdfe60806040526004361015610010575b005b60003560e01c806301c361d11461139e57806301ffc9a71461134857806306b091f91461101b578063248a9ca314610ffd5780632c3f798614610fc35780632f2ff15d14610f9257806336568abe14610f4c5780634a33575414610f1f5780634f1ef28614610d0757806352d1902d14610c9d578063608e4dd014610b7b5780636899b53914610b19578063715018a614610aaf5780637547c7a3146109355780637736865a146107415780638da5cb5b1461070b57806391d14854146106b1578063953fb6ac146105955780639d76ea581461056c578063a217fddf14610550578063ad3cb1cc146104d4578063c4d66de814610298578063cb6d8ee61461027a578063d547741f14610244578063e90f3fc1146101e0578063f2d065ed1461016c5763f2fde38b0361000e57346101675760203660031901126101675761000e61015a61152c565b610162611863565b611731565b600080fd5b34610167576000366003190112610167576040516003805480835260009182526020830191600080516020611b2483398151915291905b8181106101ca576101c6856101ba81870382611588565b604051918291826115c4565b0390f35b82548452602090930192600192830192016101a3565b34610167576040366003190112610167576101f961152c565b610201611542565b9060018060a01b0316600052600460205260406000209060018060a01b0316600052602052604080600020600160ff825416910154825191151582526020820152f35b346101675760403660031901126101675761000e600435610263611542565b90610275610270826116c5565b611819565b6119f4565b34610167576000366003190112610167576020600254604051908152f35b34610167576020366003190112610167576102b161152c565b600080516020611be4833981519152549060ff8260401c1615916001600160401b038116801590816104cc575b60011490816104c2575b1590816104b9575b506104a85767ffffffffffffffff198116600117600080516020611be4833981519152558261047b575b50600580546001600160a01b0319166001600160a01b0392909216919091179055610343611a94565b61034b611a94565b61035433611731565b61035c611a94565b60008052600080516020611bc48339815191526020527fb7db2dd08fcb62d0c9e08c51941cae53c267786a0b75803fb7960902fc8ef97e5461039d90611819565b6103a633611899565b507f8619cecd8b9e095ab43867f5b69d492180450fe862e6b50bfbfb24b75dd84c8a6000818152600080516020611bc48339815191526020527f9e55e7b9c223644eee376bcbcf651816b24106427c658526e048949da61b2c0980549082905560405193927fbd79b86ffe0ab8e8776151514217cd7cacd52c909f66475c3af44e129f0b00ff8380a461043557005b600080516020611be4833981519152805460ff60401b19169055600181527fc7f505b2f371ae2175ee4913f4499e1f2633a7b5936321eed1cdaeb6115181d290602090a1005b68ffffffffffffffffff19166801000000000000000117600080516020611be4833981519152558261031a565b63f92ee8a960e01b60005260046000fd5b905015846102f0565b303b1591506102e8565b8491506102de565b346101675760003660031901126101675760408051906104f48183611588565b60058252640352e302e360dc1b6020830152805180926020825280519081602084015260005b8281106105395750506000828201840152601f01601f19168101030190f35b60208282018101518783018701528694500161051a565b3461016757600036600319011261016757602060405160008152f35b34610167576000366003190112610167576005546040516001600160a01b039091168152602090f35b34610167576040366003190112610167576105ae61152c565b6105b6611542565b9060018060a01b0316806000526004602052604060002060018060a01b03831660005260205260ff6040600020541660001461061c57600052600460205260406000209060018060a01b031660005260205260206001604060002001545b604051908152f35b905060005490601990600090600354915b848110610641575b50505060209150610614565b81600052600160205260406000205460008483101561069d5760039052600080516020611b248339815191528201541061067d5760010161062d565b9150506020925061068e91506116e6565b90549060031b1c828080610635565b634e487b7160e01b81526032600452602490fd5b34610167576040366003190112610167576106ca611542565b600435600052600080516020611bc483398151915260205260406000209060018060a01b0316600052602052602060ff604060002054166040519015158152f35b3461016757600036600319011261016757600080516020611b44833981519152546040516001600160a01b039091168152602090f35b34610167576040366003190112610167576004356001600160401b03811161016757610771903690600401611558565b906024356001600160401b03811161016757610791903690600401611558565b929061079b6117a7565b838203610924576001600160401b0382116108c757600160401b82116108c757600054826000558083106108f1575b506000808052600080516020611b648339815191529084905b8481106108dd575050506001600160401b0384116108c757600160401b84116108c75760035484600355808510610893575b508093600360005260206000209460005b82811061087f577f4e5df2ebeb69f6f6e31496788642b0d7809dc745886b362e7e677577286e17ab868661087a878761086c60405195869560408752604087019161170d565b91848303602086015261170d565b0390a1005b600190602083359301928189015501610826565b6003600052600080516020611b248339815191529081019085015b8181106108bb5750610815565b600081556001016108ae565b634e487b7160e01b600052604160045260246000fd5b6001906020833593019281850155016107e3565b60008052600080516020611b648339815191529081019083015b81811061091857506107ca565b6000815560010161090b565b630606ba5960e51b60005260046000fd5b3461016757602036600319011261016757600554604051636eb1769f60e11b81523360048281019190915230602483015235916001600160a01b031690602081604481855afa8015610a56578391600091610a7a575b5010610a6257602060405180926323b872dd60e01b8252816000816109b588303360048501611638565b03925af18015610a5657610a29575b503360005260016020526109dd81604060002054611700565b3360005260016020526040600020556109f881600254611700565b6002556040519081527f1b3f64b48324e788237a57cc64f284a65bd87db8e09daf8249e10f91e1979a0b60203392a2005b610a4a9060203d602011610a4f575b610a428183611588565b8101906116ad565b6109c4565b503d610a38565b6040513d6000823e3d90fd5b6338aa956f60e11b6000526004523360245260446000fd5b9150506020813d602011610aa7575b81610a9660209383611588565b81010312610167578290518461098b565b3d9150610a89565b3461016757600036600319011261016757610ac8611863565b600080516020611b4483398151915280546001600160a01b031981169091556000906001600160a01b03167f8be0079c531659141344cd1fd0a4f28419497f9722a3daafe3b4186f6b6457e08280a3005b3461016757600036600319011261016757604051600080548083528180526020830191600080516020611b6483398151915291905b818110610b65576101c6856101ba81870382611588565b8254845260209093019260019283019201610b4e565b34610167576020366003190112610167576004353360005260016020528060406000205410610c675760055460405163a9059cbb60e01b81523360048201526024810183905290602090829060449082906000906001600160a01b03165af18015610a5657610c4a575b50336000526001602052610bfe8160406000205461168a565b336000526001602052604060002055610c198160025461168a565b6002556040519081527f8d66e0822f37d896e7cb74c765ad03869c0c860e7f064326fb43b0a9d4703d2b60203392a2005b610c629060203d602011610a4f57610a428183611588565b610be5565b60018060a01b03600554169033600052600160205260406000205491631a5846bb60e21b60005260045260245260445260646000fd5b34610167576000366003190112610167577f00000000000000000000000000000000000000000000000000000000000000006001600160a01b03163003610cf6576020604051600080516020611b848339815191528152f35b63703e46dd60e11b60005260046000fd5b604036600319011261016757610d1b61152c565b602435906001600160401b038211610167573660238301121561016757816004013590610d47826115a9565b91610d556040519384611588565b8083526020830193366024838301011161016757816000926024602093018737840101526001600160a01b037f000000000000000000000000000000000000000000000000000000000000000016308114908115610efc575b50610cf657610dbb611863565b6040516352d1902d60e01b81526001600160a01b0382169390602081600481885afa60009181610ec8575b50610e005784634c9c8ce360e01b60005260045260246000fd5b80600080516020611b84833981519152869203610eb45750823b15610ea057600080516020611b8483398151915280546001600160a01b031916821790557fbc7cd75a20ee27fd9adebab32041f755214dbc6bffa90cc0225b39da2e5c2d3b600080a2825115610e85576000809161000e945190845af4610e7f61165a565b91611ac2565b50505034610e8f57005b63b398979f60e01b60005260046000fd5b634c9c8ce360e01b60005260045260246000fd5b632a87526960e21b60005260045260246000fd5b9091506020813d602011610ef4575b81610ee460209383611588565b8101031261016757519086610de6565b3d9150610ed7565b600080516020611b84833981519152546001600160a01b03161415905084610dae565b34610167576020366003190112610167576020610f3d6004356116e6565b90549060031b1c604051908152f35b3461016757604036600319011261016757610f65611542565b336001600160a01b03821603610f815761000e906004356119f4565b63334bd91960e11b60005260046000fd5b346101675760403660031901126101675761000e600435610fb1611542565b90610fbe610270826116c5565b61194b565b34610167576020366003190112610167576001600160a01b03610fe461152c565b1660005260016020526020604060002054604051908152f35b346101675760203660031901126101675760206106146004356116c5565b346101675760403660031901126101675761103461152c565b60243561103f611863565b6001600160a01b0382169182156111de576040516370a0823160e01b8152306004820152602081602481875afa8015610a565783916000916111a9575b501061112d57600080516020611b448339815191525460405163a9059cbb60e01b81526001600160a01b0390911660048201526024810183905292602090849060449082906000905af1928315610a5657600080516020611ba48339815191529361110e575b505b600080516020611b448339815191525460405192839261087a926001600160a01b03169084611638565b6111269060203d602011610a4f57610a428183611588565b50836110e2565b506040516370a0823160e01b815230600482015291602083602481845afa928315610a5657600093611175575b50636e7d25eb60e01b60005260045260245260445260646000fd5b9092506020813d6020116111a1575b8161119160209383611588565b810103126101675751918361115a565b3d9150611184565b9150506020813d6020116111d6575b816111c560209383611588565b81010312610167578290518561107c565b3d91506111b8565b6005546001600160a01b031683036112ea576040516370a0823160e01b8152306004820152602081602481875afa8015610a565783916000916112b3575b506002546112299161168a565b1061112d57600080516020611b448339815191525460405163a9059cbb60e01b81526001600160a01b0390911660048201526024810183905292602090849060449082906000905af1928315610a5657600080516020611ba483398151915293611294575b506110e4565b6112ac9060203d602011610a4f57610a428183611588565b508361128e565b9150506020813d6020116112e2575b816112cf60209383611588565b810103126101675751829061122961121c565b3d91506112c2565b81471061132b57600080516020611ba4833981519152925060008080808560018060a01b03600080516020611b4483398151915254165af15061128e61165a565b504791636e7d25eb60e01b60005260045260245260445260646000fd5b346101675760203660031901126101675760043563ffffffff60e01b811680910361016757602090637965db0b60e01b811490811561138d575b506040519015158152f35b6301ffc9a760e01b14905082611382565b34610167576060366003190112610167576113b761152c565b6024356001600160401b038111610167576113d6903690600401611558565b90916044356001600160401b038111610167576113f7903690600401611558565b916114006117a7565b8284036115135761025884116114f8576001600160a01b038116949360005b81811061142857005b8061143660019287876115fe565b35828060a01b0361145061144b84878c6115fe565b611624565b166000526004602052826040806000206000908c8252602052200155818060a01b0361148061144b83868b6115fe565b1660005260046020526040806000206000908a8252602052208260ff198254161790557fd16fd414ab78e71952a15742ec97b30557342007d21be62c8f3b119f6ce46f606114d261144b83868b6115fe565b6114dd8389896115fe565b35906114ef6040519283928984611638565b0390a10161141f565b83630a02c5cb60e21b60005261025860045260245260446000fd5b82846374a79b4960e01b60005260045260245260446000fd5b600435906001600160a01b038216820361016757565b602435906001600160a01b038216820361016757565b9181601f84011215610167578235916001600160401b038311610167576020808501948460051b01011161016757565b90601f801991011681019081106001600160401b038211176108c757604052565b6001600160401b0381116108c757601f01601f191660200190565b602060408183019282815284518094520192019060005b8181106115e85750505090565b82518452602093840193909201916001016115db565b919081101561160e5760051b0190565b634e487b7160e01b600052603260045260246000fd5b356001600160a01b03811681036101675790565b6001600160a01b03918216815291166020820152604081019190915260600190565b3d15611685573d9061166b826115a9565b916116796040519384611588565b82523d6000602084013e565b606090565b9190820391821161169757565b634e487b7160e01b600052601160045260246000fd5b90816020910312610167575180151581036101675790565b600052600080516020611bc483398151915260205260016040600020015490565b60005481101561160e576000805260206000200190600090565b9190820180921161169757565b81835290916001600160fb1b0383116101675760209260051b809284830137010190565b6001600160a01b0316801561179157600080516020611b4483398151915280546001600160a01b0319811683179091556001600160a01b03167f8be0079c531659141344cd1fd0a4f28419497f9722a3daafe3b4186f6b6457e0600080a3565b631e4fbdf760e01b600052600060045260246000fd5b3360009081527f9e55e7b9c223644eee376bcbcf651816b24106427c658526e048949da61b2c08602052604090205460ff16156117e057565b63e2517d3f60e01b600052336004527f8619cecd8b9e095ab43867f5b69d492180450fe862e6b50bfbfb24b75dd84c8a60245260446000fd5b6000818152600080516020611bc48339815191526020908152604080832033845290915290205460ff161561184b5750565b63e2517d3f60e01b6000523360045260245260446000fd5b600080516020611b44833981519152546001600160a01b0316330361188457565b63118cdaa760e01b6000523360045260246000fd5b6001600160a01b03811660009081527fb7db2dd08fcb62d0c9e08c51941cae53c267786a0b75803fb7960902fc8ef97d602052604090205460ff16611945576001600160a01b031660008181527fb7db2dd08fcb62d0c9e08c51941cae53c267786a0b75803fb7960902fc8ef97d60205260408120805460ff191660011790553391907f2f8788117e7eff1d82e926ec794901d17c78024a50270940304540a733656f0d8180a4600190565b50600090565b6000818152600080516020611bc4833981519152602090815260408083206001600160a01b038616845290915290205460ff166119ed576000818152600080516020611bc4833981519152602090815260408083206001600160a01b0395909516808452949091528120805460ff19166001179055339291907f2f8788117e7eff1d82e926ec794901d17c78024a50270940304540a733656f0d9080a4600190565b5050600090565b6000818152600080516020611bc4833981519152602090815260408083206001600160a01b038616845290915290205460ff16156119ed576000818152600080516020611bc4833981519152602090815260408083206001600160a01b0395909516808452949091528120805460ff19169055339291907ff6391f5c32d9c69d2a47ea670b442974b53935d1edc7fd64eb21e047a839171b9080a4600190565b60ff600080516020611be48339815191525460401c1615611ab157565b631afcd79f60e31b60005260046000fd5b90611ae85750805115611ad757805190602001fd5b63d6bda27560e01b60005260046000fd5b81511580611b1a575b611af9575090565b639996b31560e01b60009081526001600160a01b0391909116600452602490fd5b50803b15611af156fec2575a0e9e593c00f959f8c92f12db2869c3395a3b0502d05e2516446f71f85b9016d09d72d40fdae2fd8ceac6b6234c7706214fd39c1cd1e609a0528c199300290decd9548b62a8d60345a988386fc84ba6bc95484008f6362f93160ef3e563360894a13ba1a3210667c828492db98dca3e2076cc3735a920a3ca505d382bbc8210728e7c071f615b840ee026032693858fbcd5e5359e67e438c890f59e562002dd7bc7dec4dceedda775e58dd541e08a116c6c53815c0bd028192f7b626800f0c57e16840df040f15088dc2f81fe391c3923bec73e23a9662efc9c229c6a00a2646970667358221220648ec6415f918480393ce17b6a910dfdae7eb4420965b37b50de34e5980c237264736f6c634300081c0033",
  "linkReferences": {},
  "deployedLinkReferences": {}
}